:100000000C949E000C94C6000C94C6000C94C60080
:100010000C94C6000C94C6000C94C6000C94C60048
:100020000C94C6000C94C6000C94C6000C94C60038
:100030000C94C6000C94C6000C94C6000C94C60028
:100040000C9463050C94C6000C94D3050C94AD0578
:100050000C94C6000C94C6000C94C6000C94C60008
:100060000C94C6000C94C60007634236B79BD8A711
:100070001A39685618AEBAAB558C1D3CB7CC5763CD
:10008000BD6DEDFD753EF6177231BF000000803F7B
:1000900008000000BE922449123EABAAAA2ABECD97
:1000A000CCCC4C3E00000080BEABAAAAAA3E000009
:1000B0000000BF000000803F000000000008417801
:1000C000D3BB4387D1133D190E3CC3BD4282AD2B38
:1000D0003E68EC8276BED98FE1A93E4C80EFFFBE30
:1000E00001C4FF7F3F000000000000000008000284
:1000F00001000003040700000000000000000000F1
:100100000000250028002B0000000000240027002C
:100110002A00040404040404040402020202020289
:1001200003030303030301020408102040800102BB
:1001300004081020010204081020050611241FBE27
:10014000CFEFD8E0DEBFCDBF11E0A0E0B1E0E6EA3E
:10015000F7E102C005900D92A036B107D9F722E071
:10016000A0E6B1E001C01D92AD31B207E1F710E0A9
:10017000CEE9D0E004C02197FE010E940508CD39E8
:10018000D107C9F70E94A4060C94D10B0C9400006F
:1001900090E0FC01EA5DFE4F24918E5E9E4FFC01D3
:1001A0008491882399F090E0880F991FFC01E85F03
:1001B000FE4FA591B491FC01E250FF4F85919491BF
:1001C0008FB7F894EC91E22BEC938FBF089590E0F9
:1001D000FC01E651FF4F2491FC01EA5DFE4F349192
:1001E000FC01EE5EFE4FE491EE23C9F0222339F0CC
:1001F000233001F1A8F4213019F1223029F1F0E087
:10020000EE0FFF1FE250FF4FA591B4918FB7F89406
:10021000EC91611126C030953E233C938FBF089529
:100220002730A9F02830C9F0243049F780918000A8
:100230008F7D03C0809180008F7780938000DFCF17
:1002400084B58F7784BDDBCF84B58F7DFBCF809164
:10025000B0008F778093B000D2CF8091B0008F7DB7
:10026000F9CF3E2BDACF3FB7F8948091650190919A
:100270006601A0916701B091680126B5A89B05C0F1
:100280002F3F19F00196A11DB11D3FBFBA2FA92F15
:10029000982F8827BC01CD01620F711D811D911D12
:1002A00042E0660F771F881F991F4A95D1F708957E
:1002B0008F929F92AF92BF92CF92DF92EF92FF9276
:1002C0004B015C010E9433016B017C010E943301F0
:1002D0006C197D098E099F09683E7340810591055F
:1002E000A8F321E0821A9108A108B10888EEC80E8F
:1002F00083E0D81EE11CF11C81149104A104B10417
:1003000029F7FF90EF90DF90CF90BF90AF909F9034
:100310008F900895AF92BF92CF92DF92EF92FF92AB
:100320000F931F93CF93DF936C017B018B01040F1D
:10033000151FEB015E01AE18BF08C017D10759F0B9
:100340006991D601ED91FC910190F081E02DC601FB
:100350000995892B79F7C501DF91CF911F910F91F5
:10036000FF90EF90DF90CF90BF90AF900895FC0189
:10037000538D448D252F30E0842F90E0821B930B0A
:10038000541710F0CF96089501970895FC01918DB0
:10039000828D981761F0A28DAE0FBF2FB11D5D96B3
:1003A0008C91928D9F5F9F73928F90E008958FEF55
:1003B0009FEF0895FC01918D828D981731F0828D09
:1003C000E80FF11D858D90E008958FEF9FEF089560
:1003D000FC01918D228D892F90E0805C9F4F821BC4
:1003E00091098F739927089589E691E00E94E801A9
:1003F00021E0892B09F420E0822F089580E090E02D
:10040000892B29F00E94F40181110C9400000895B9
:10041000FC01A48DA80FB92FB11DA35ABF4F2C9179
:10042000848D90E001968F739927848FA689B78970
:100430002C93A089B1898C91837080648C93938D67
:10044000848D981306C00288F389E02D80818F7D0A
:1004500080830895EF92FF920F931F93CF93DF93C2
:10046000EC0181E0888F9B8D8C8D98131AC0E889F0
:10047000F989808185FF15C09FB7F894EE89FF89BF
:100480006083E889F98980818370806480839FBF5D
:1004900081E090E0DF91CF911F910F91FF90EF905D
:1004A0000895F62E0B8D10E00F5F1F4F0F7311276D
:1004B000E02E8C8D8E110CC00FB607FCFACFE889A8
:1004C000F989808185FFF5CFCE010E940802F1CF26
:1004D000EB8DEC0FFD2FF11DE35AFF4FF0829FB71C
:1004E000F8940B8FEA89FB8980818062CFCFCF930C
:1004F000DF93EC01888D8823B9F0AA89BB89E8894C
:10050000F9898C9185FD03C0808186FD0DC00FB6F1
:1005100007FCF7CF8C9185FFF2CF808185FFEDCF6F
:10052000CE010E940802E9CFDF91CF910895BF92DA
:10053000CF92DF92EF92FF920F931F93CF93DF93AF
:100540008C01B42E6C018EE0C80ED11CD0E0C0E04E
:10055000E62EF12CB7010C2E02C0759567950A9412
:10056000E2F76170F60181916F010E94E700219628
:10057000CB1580F361E0F80185850E94E70060E01B
:10058000F8018585DF91CF911F910F91FF90EF903A
:10059000DF90CF90BF900C94E700FC0186898F3FDD
:1005A00071F021853285662329F0232B31F461E037
:1005B0000C94E70021303105D1F360E0F9CF0895C4
:1005C000EF92FF921F93CF93DF93EC01162F7A01E6
:1005D000862F0E94C8001E8BFA86E986E881F98181
:1005E0000484F585E02D60E0CE01DF91CF911F916D
:1005F000FF90EF9009940F931F93CF93DF93EC013B
:10060000162F042F61E0413009F060E08B850E94D5
:10061000E7008C858F3F19F060E00E94E700023010
:1006200079F08C8148E084FD0CC0612F70E084E09B
:10063000759567958A95E1F744E0CE010E9497028F
:1006400044E0612FCE01DF91CF911F910F910C9467
:100650009702DC01ED91FC910684F785E02D41E0E5
:10066000099581E090E00895DC01ED91FC9106840C
:10067000F785E02D40E00994CF93DF93CDB7DEB747
:1006800028970FB6F894DEBF0FBECDBF8091000152
:1006900090910101A0910201B09103018D839E838D
:1006A000AF83B8878091040190910501A091060164
:1006B000B091070189839A83AB83BC8320910D029B
:1006C0008FEF820F223008F081E090E030910E022F
:1006D0008C0F9D1FFC01303181F4243071F4618155
:1006E000606886E092E028960FB6F894DEBF0FBEF1
:1006F000CDBFDF91CF910C9434036581F1CF61E0E0
:100700000E9434038BE39FE10197F1F708950F9363
:100710001F93CF93DF93EC01423018F08C818860F7
:100720008C834F836887222329F0413019F48C8110
:1007300084608C8364E670E080E090E00E94580161
:100740006C8164FD57C0E881F9810684F785E02D4E
:1007500042E063E0CE0109958BE496E40197F1F75E
:10076000E881F9810684F785E02D42E063E0CE015F
:10077000099503E512E0C8010197F1F7E881F981D5
:100780000684F785E02D42E063E0CE010995C801BB
:100790000197F1F7E881F9810684F785E02D42E0C1
:1007A00062E0CE010995C8010197F1F76C816062A2
:1007B000CE010E9434038BEE90E00197F1F784E0C4
:1007C0008D836CE0CE010E943403CE010E947F0332
:1007D00082E08E8366E0CE010E943403E881F981D5
:1007E0000484F585E02D6FEFCE01DF91CF911F914D
:1007F0000F9109946062CE010E9434038BE496E469
:100800000197F1F76C816062CE010E94340303E529
:1008100012E0C8010197F1F76C816062CE010E947D
:100820003403C1CF08950895089590E080E00895BD
:100830000E94CC0BFB0101900020E9F73197AF013A
:10084000461B570BDC01ED91FC910280F381E02DFA
:1008500009948F929F92AF92BF92EF92FF920F9363
:100860001F93CF93DF93CDB7DEB7A1970FB6F89460
:10087000DEBF0FBECDBF7C01FA01CB0119A2223031
:1008800008F42AE08E010F5D1F4F822E912CB12CAF
:10089000A12CBF01A50194010E94E307F901CA013F
:1008A0006A300CF5605DD8016E938D01232B242BEB
:1008B000252B79F790E080E0109721F0BD01C7016A
:1008C0000E941A04A1960FB6F894DEBF0FBECDBFEA
:1008D000DF91CF911F910F91FF90EF90BF90AF905C
:1008E0009F908F900895695CDECF2F923F924F9238
:1008F0005F926F927F928F929F92AF92BF92CF92B0
:10090000DF92EF92FF921F93CF93DF93EC016A0186
:100910007B01722EAB019601CB01B6010E94920AB7
:100920006EE271E0811126C046015701E894B7F8E4
:100930002FEF3FEF4FE75FE7C501B4010E94920A36
:1009400081110CC02FEF3FEF4FE75FE7C501B40106
:100950000E94780862E371E0181664F02FEF3FEF11
:100960004FE75FE4C701B6010E94D0091816B4F43E
:1009700066E371E0CE01DF91CF911F91FF90EF9080
:10098000DF90CF90BF90AF909F908F907F906F90AF
:100990005F904F903F902F900C941A042FEF3FEFF1
:1009A0004FE75FECC701B6010E94780887FDE0CFF2
:1009B00020E030E0A901C701B6010E947808312C7F
:1009C000212C87FF0DC0E881F9810190F081E02D95
:1009D0006DE2CE0109951C01F7FAF094F7F8F09456
:1009E00010E060E070E080E09FE3711641F020E0ED
:1009F00030E040E251E40E947D081F5FF6CFA7017E
:100A000096010E940C082B013C010E94EF084B014B
:100A10005C012AE0BC01A401CE010E9429047C01F2
:100A2000E20CF31C1123E1F1C501B4010E941E097F
:100A30009B01AC01C301B2010E940B084B015C0198
:100A4000E881F9810190F081E02D6EE2CE010995F7
:100A5000E80EF91E115020F120E030E040E251E4B0
:100A6000C501B4010E94D5092B013C010E94EF0889
:100A70004B01B12CA12C2AE0B501A401CE010E94AA
:100A80002904E80EF91EC501B4010E941E099B014C
:100A9000AC01C301B2010E940B084B015C01DACF2B
:100AA000C701DF91CF911F91FF90EF90DF90CF9022
:100AB000BF90AF909F908F907F906F905F904F907E
:100AC0003F902F9008951F920F920FB60F9211240E
:100AD0002F933F938F939F93AF93BF938091610127
:100AE00090916201A0916301B09164013091600125
:100AF00023E0230F2D3758F50196A11DB11D20933A
:100B000060018093610190936201A0936301B093AF
:100B100064018091650190916601A0916701B09197
:100B200068010196A11DB11D809365019093660136
:100B3000A0936701B0936801BF91AF919F918F918E
:100B40003F912F910F900FBE0F901F90189526E8A0
:100B5000230F0296A11DB11DD2CF1F920F920FB687
:100B60000F9211242F933F934F935F936F937F9333
:100B70008F939F93AF93BF93EF93FF9389E691E099
:100B80000E940802FF91EF91BF91AF919F918F91C9
:100B90007F916F915F914F913F912F910F900FBE79
:100BA0000F901F9018951F920F920FB60F9211245D
:100BB0002F938F939F93EF93FF93E0917901F0919F
:100BC0007A018081E0917F01F091800182FD1BC05C
:100BD0009081809182018F5F8F73209183018217B2
:100BE00041F0E0918201F0E0E759FE4F958F80934C
:100BF0008201FF91EF919F918F912F910F900FBEE6
:100C00000F901F9018958081F4CFCF93DF931092AF
:100C10006C0110926B0188EE93E0A0E0B0E080934D
:100C20006D0190936E01A0936F01B09370018CE001
:100C300091E090936A018093690185EC90E0909334
:100C400076018093750184EC90E090937801809315
:100C5000770180EC90E090937A018093790181ECA8
:100C600090E090937C0180937B0182EC90E09093E4
:100C70007E0180937D0186EC90E0909380018093CB
:100C80007F011092820110928301109284011092D0
:100C9000850110920902109208028EE191E0909372
:100CA0000702809306028CE0809311028FEF8093FD
:100CB00012028BE08093130285E08093140284E09B
:100CC0008093150283E08093160282E080931702DE
:100CD000109218021092190210921A0210921B021E
:100CE000C4E1D2E089910E94C80082E0C831D807EF
:100CF000C9F7809111020E94C800809112028F3FB3
:100D000011F00E94C800809113020E94C800109246
:100D10000A0260E0809111020E94E70060E0809189
:100D200013020E94E700809112028F3F19F060E0E9
:100D30000E94E7008FEF80931C0210921002109225
:100D40000F02DF91CF910895789484B5826084BDBD
:100D500084B5816084BD85B5826085BD85B58160BF
:100D600085BD80916E00816080936E00109281003D
:100D700080918100826080938100809181008160F8
:100D800080938100809180008160809380008091B9
:100D9000B10084608093B1008091B0008160809345
:100DA000B00080917A00846080937A0080917A000C
:100DB000826080937A0080917A00816080937A00CB
:100DC00080917A00806880937A001092C10020E0C0
:100DD00042E060E186E092E00E94870386E092E0D4
:100DE0000E947F03E0917901F0917A0182E0808393
:100DF000E0917501F09176011082E0917701F09118
:100E000078018FEC808310928101E0917D01F09157
:100E10007E0186E08083E0917B01F0917C018081FE
:100E200080618083E0917B01F0917C01808188600A
:100E30008083E0917B01F0917C01808180688083D8
:100E4000E0917B01F0917C0180818F7D80836AE35A
:100E500071E086E092E00E941A040E943C0362E482
:100E600071E086E092E00E941A046CED75E080E08B
:100E700090E00E94580186E092E00E947F036EE4B9
:100E800071E086E092E00E941A0410E4C0E0D0E035
:100E900010937C0080917A00806480937A00809126
:100EA0007A0086FDFCCF6091780070917900072E62
:100EB000000C880B990B0E94200920E030E040EAEA
:100EC00050E40E94D50920E030EC4FE754E40E9442
:100ED0007D086B017C0120E030E040E450E40E949A
:100EE000420A2B013C012FE236E249E556E4C701F4
:100EF000B6010E94D5099B01AC016EEC7BE582E254
:100F000096E40E940B084B015C01A7019601C70102
:100F1000B6010E94D5092EEE38ED4EEB55E40E9445
:100F2000D5099B01AC01C501B4010E940C084B011D
:100F30005C012EE53EE34BE554E4C301B2010E949F
:100F4000D5099B01AC01C501B4010E940B084B01FE
:100F50005C0124E0B701A60189E691E00E947504D6
:100F60006BE571E089E691E00E941A0464EF71E09C
:100F700080E090E00E9458010E943C0322E0B5010D
:100F8000A40186E092E00E9475046FED86E092E095
:100F90000E9429036EE571E086E092E00E941A0447
:100FA00068EE73E080E090E00E9458010E943C03EC
:100FB000209709F46DCF0E94F401882309F468CFCB
:100FC0000E94000065CFA1E21A2EAA1BBB1BFD01E7
:100FD0000DC0AA1FBB1FEE1FFF1FA217B307E40718
:100FE000F50720F0A21BB30BE40BF50B661F771F70
:100FF000881F991F1A9469F7609570958095909550
:101000009B01AC01BD01CF010895EE0FFF1F0590BC
:10101000F491E02D09945058BB27AA270E94230879
:101020000C9496090E94880938F00E948F0920F0DC
:1010300039F49F3F19F426F40C9485090EF4E095D9
:10104000E7FB0C947F09E92F0E94A70958F3BA1710
:10105000620773078407950720F079F4A6F50C94CE
:10106000C9090EF4E0950B2EBA2FA02D0B01B90182
:1010700090010C01CA01A0011124FF27591B99F00E
:10108000593F50F4503E68F11A16F040A22F232F1A
:10109000342F4427585FF3CF469537952795A7956A
:1010A000F0405395C9F77EF41F16BA0B620B730B11
:1010B000840BBAF09150A1F0FF0FBB1F661F771F82
:1010C000881FC2F70EC0BA0F621F731F841F48F437
:1010D000879577956795B795F7959E3F08F0B0CFC0
:1010E0009395880F08F09927EE0F979587950895A7
:1010F0000E945B0908F481E008950E9491080C9415
:1011000096090E948F0958F00E94880940F029F43E
:101110005F3F29F00C947F0951110C94CA090C947B
:1011200085090E94A70968F39923B1F3552391F328
:10113000951B550BBB27AA2762177307840738F046
:101140009F5F5F4F220F331F441FAA1FA9F335D0A3
:101150000E2E3AF0E0E832D091505040E695001C57
:10116000CAF72BD0FE2F29D0660F771F881FBB1F11
:10117000261737074807AB07B0E809F0BB0B802DEF
:10118000BF01FF2793585F4F3AF09E3F510578F01B
:101190000C947F090C94CA095F3FE4F3983ED4F3A2
:1011A000869577956795B795F7959F5FC9F7880FEF
:1011B000911D9695879597F90895E1E0660F771F41
:1011C000881FBB1F621773078407BA0720F0621BD2
:1011D000730B840BBA0BEE1F88F7E09508950E94FD
:1011E000AF0988F09F5798F0B92F9927B751B0F001
:1011F000E1F0660F771F881F991F1AF0BA95C9F79B
:1012000014C0B13091F00E94C909B1E008950C9466
:10121000C909672F782F8827B85F39F0B93FCCF319
:10122000869577956795B395D9F73EF49095809517
:10123000709561957F4F8F4F9F4F0895E89409C037
:1012400097FB3EF490958095709561957F4F8F4FF9
:101250009F4F9923A9F0F92F96E9BB279395F6950F
:10126000879577956795B795F111F8CFFAF4BB0F8D
:1012700011F460FF1BC06F5F7F4F8F4F9F4F16C0F1
:10128000882311F096E911C0772321F09EE8872F7B
:10129000762F05C0662371F096E8862F70E060E037
:1012A0002AF09A95660F771F881FDAF7880F9695B0
:1012B000879597F90895990F0008550FAA0BE0E854
:1012C000FEEF16161706E807F907C0F01216130608
:1012D000E407F50798F0621B730B840B950B39F448
:1012E0000A2661F0232B242B252B21F408950A26AE
:1012F00009F4A140A6958FEF811D811D089597F9EE
:101300009F6780E870E060E008959FEF80EC0895AB
:1013100000240A94161617061806090608950024D4
:101320000A9412161306140605060895092E03944E
:10133000000C11F4882352F0BB0F40F4BF2B11F4C2
:1013400060FF04C06F5F7F4F8F4F9F4F089557FD21
:101350009058440F551F59F05F3F71F04795880F23
:1013600097FB991F61F09F3F79F0879508951216BA
:1013700013061406551FF2CF4695F1DF08C0161666
:1013800017061806991FF1CF869571056105089417
:101390000895E894BB2766277727CB0197F908952E
:1013A0000E945B0908F48FEF08950E94E8090C94ED
:1013B00096090E94880938F00E948F0920F0952331
:1013C00011F00C947F090C94850911240C94CA091E
:1013D0000E94A70970F3959FC1F3950F50E0551F28
:1013E000629FF001729FBB27F00DB11D639FAA277A
:1013F000F00DB11DAA1F649F6627B00DA11D661FC9
:10140000829F2227B00DA11D621F739FB00DA11DE9
:10141000621F839FA00D611D221F749F3327A00DA3
:10142000611D231F849F600D211D822F762F6A2F3F
:1014300011249F5750409AF0F1F088234AF0EE0FA4
:10144000FF1FBB1F661F771F881F91505040A9F7D1
:101450009E3F510580F00C947F090C94CA095F3FB0
:10146000E4F3983ED4F3869577956795B795F7950D
:10147000E7959F5FC1F7FE2B880F911D9695879585
:1014800097F90895FA01EE0FFF1F309621053105F7
:10149000A1F16115710561F48038BFE39B0749F143
:1014A00068949038810561F08038BFEF9B0741F068
:1014B00099234AF5FF3FE1053105210519F1E8942B
:1014C0000894E795D901AA2329F4AB2FBE2FF85F22
:1014D000D0F310C0FF5F70F4A695E0F7F73950F035
:1014E00019F0FF3A38F49F779F930DD00F9007FCC7
:1014F0009058089546F00C94850960E070E080E80B
:101500009FE308954FE79F775F934F933F932F9308
:101510000E94420B2F913F914F915F910E94D509FC
:101520000C949F0A0E945B09880B990B089529F47B
:1015300016F00C947F090C94C9090C9485090E943B
:10154000AF09A8F39638A0F707F80F92E8942BE3B9
:101550003AEA48EB5FE70E94EB090F920F920F9275
:101560004DB75EB70F920E948A0BE8E6F0E00E944A
:10157000D10A4F915F91EF91FF91E595EE1FFF1F0B
:1015800049F0FE57E0684427EE0F441FFA95E1F753
:101590004195550B0E94040B0F9007FE0C94F80A1E
:1015A0000895DF93CF931F930F93FF92EF92DF92F3
:1015B0007B018C01689406C0DA2EEF010E94E809D5
:1015C000FE01E894A5912591359145915591A6F399
:1015D000EF010E942308FE019701A801DA9469F740
:1015E000DF90EF90FF900F911F91CF91DF910895C1
:1015F0009B01AC0160E070E080E89FE30C947D0803
:101600000C947F090C94BE0B0E94AF09D8F3992368
:10161000C9F3940F511DA3F39150504094F059F029
:10162000882332F0660F771F881F91505040C1F712
:101630009E3F51052CF7880F911D9695879597F938
:1016400008955F3FACF0983E9CF0BB278695779558
:101650006795B79508F4B1609395C1F7BB0F58F73C
:1016600011F460FFE8CF6F5F7F4F8F4F9F4FE3CF45
:101670000C94CA0916F00C94BE0B0C94850968945E
:101680000C947F090E94AF09A8F39923C1F3AEF32C
:10169000DF93CF931F930F93FF92C92FDD278823EA
:1016A0002AF02197660F771F881FDAF720E030E0D5
:1016B00040E85FEB9FE3883920F0803E38F02196C8
:1016C0008F770E940C08E0E9F0E004C00E940C084B
:1016D000EDEBF0E00E94D10A8B01BE01EC01FB2E84
:1016E0006F5771097595771F880B990B0E94200918
:1016F00028E132E741E35FE30E94E809AF2D98015A
:10170000AE01FF900F911F91CF91DF910E942308AE
:101710000C949609FA01DC01AA0FBB1F9B01AC01D6
:10172000BF5728F4222733274427507820C0B751C9
:1017300090F4AB2F0024469537952795011CA3956F
:10174000D2F3002071F0220F331F441FB395DAF358
:101750000ED00C940B0861307105A0E88A07B946D9
:1017600030F49B01AC016627772788279078309664
:1017700021F0208331834283538308959F3F31F0CA
:10178000915020F4879577956795B795880F911DAF
:101790009695879597F9089581E090E0F8940C94D8
:0617A000D10BF894FFCF0D
:1017A6000040145400401050000000002A028A0134
:1017B600B7017702E801C601DA010000000029033B
:1017C6008A01150414048703E002CD02FB026E6150
:1017D6006E00696E66006F766600446967697461BB
:1017E6006C00546865726D6F6D6574657200546542
:1017F6006D70657261747572653A000D0A0043007A
:00000001FF
